{
  "_format": "hh-sol-artifact-1",
  "contractName": "Game",
  "sourceName": "contracts/Game.sol",
  "abi": [
    {
      "inputs": [
        {
          "internalType": "address payable",
          "name": "_address1",
          "type": "address"
        },
        {
          "internalType": "address payable",
          "name": "_address2",
          "type": "address"
        },
        {
          "internalType": "uint256",
          "name": "_startTime",
          "type": "uint256"
        },
        {
          "internalType": "uint256",
          "name": "_endTime",
          "type": "uint256"
        }
      ],
      "stateMutability": "nonpayable",
      "type": "constructor"
    },
    {
      "inputs": [],
      "name": "chooseEven",
      "outputs": [],
      "stateMutability": "nonpayable",
      "type": "function"
    },
    {
      "inputs": [],
      "name": "chooseOdd",
      "outputs": [],
      "stateMutability": "nonpayable",
      "type": "function"
    },
    {
      "inputs": [],
      "name": "distributeFunds",
      "outputs": [
        {
          "internalType": "uint256",
          "name": "",
          "type": "uint256"
        }
      ],
      "stateMutability": "nonpayable",
      "type": "function"
    },
    {
      "inputs": [
        {
          "internalType": "bytes32",
          "name": "h",
          "type": "bytes32"
        }
      ],
      "name": "doCommit",
      "outputs": [],
      "stateMutability": "payable",
      "type": "function"
    },
    {
      "inputs": [
        {
          "internalType": "string",
          "name": "nonce",
          "type": "string"
        },
        {
          "internalType": "uint256",
          "name": "val",
          "type": "uint256"
        }
      ],
      "name": "doReveal",
      "outputs": [],
      "stateMutability": "nonpayable",
      "type": "function"
    },
    {
      "inputs": [],
      "name": "getResult",
      "outputs": [
        {
          "internalType": "bool",
          "name": "",
          "type": "bool"
        }
      ],
      "stateMutability": "view",
      "type": "function"
    },
    {
      "inputs": [
        {
          "internalType": "string",
          "name": "nonce",
          "type": "string"
        },
        {
          "internalType": "uint256",
          "name": "val",
          "type": "uint256"
        }
      ],
      "name": "hashData",
      "outputs": [
        {
          "internalType": "bytes32",
          "name": "",
          "type": "bytes32"
        }
      ],
      "stateMutability": "pure",
      "type": "function"
    }
  ],
  "bytecode": "0x6080604052600080553480156200001557600080fd5b50604051620025d3380380620025d383398181016040528101906200003b919062000538565b6000600360006101000a81548160ff021916908315150217905550816001819055508060028190555083600360016101000a81548173ffffffffffffffffffffffffffffffffffffffff021916908373ffffffffffffffffffffffffffffffffffffffff160217905550620000af620004a4565b6040518060800160405280600280811115620000f4577f4e487b7100000000000000000000000000000000000000000000000000000000600052602160045260246000fd5b815260200160001515815260200182815260200160011515815250600560008773ffffffffffffffffffffffffffffffffffffffff1673ffffffffffffffffffffffffffffffffffffffff16815260200190815260200160002060008201518160000160006101000a81548160ff02191690836002811115620001a0577f4e487b7100000000000000000000000000000000000000000000000000000000600052602160045260246000fd5b021790555060208201518160000160016101000a81548160ff021916908315150217905550604082015181600101600082015181600001556020820151816001015560408201518160020160006101000a81548160ff02191690831515021790555060608201518160020160016101000a81548160ff0219169083600181111562000254577f4e487b7100000000000000000000000000000000000000000000000000000000600052602160045260246000fd5b0217905550505060608201518160040160006101000a81548160ff02191690831515021790555090505083600460006101000a81548173ffffffffffffffffffffffffffffffffffffffff021916908373ffffffffffffffffffffffffffffffffffffffff160217905550620002c9620004a4565b60405180608001604052806002808111156200030e577f4e487b7100000000000000000000000000000000000000000000000000000000600052602160045260246000fd5b815260200160001515815260200182815260200160011515815250600560008773ffffffffffffffffffffffffffffffffffffffff1673ffffffffffffffffffffffffffffffffffffffff16815260200190815260200160002060008201518160000160006101000a81548160ff02191690836002811115620003ba577f4e487b7100000000000000000000000000000000000000000000000000000000600052602160045260246000fd5b021790555060208201518160000160016101000a81548160ff021916908315150217905550604082015181600101600082015181600001556020820151816001015560408201518160020160006101000a81548160ff02191690831515021790555060608201518160020160016101000a81548160ff021916908360018111156200046e577f4e487b7100000000000000000000000000000000000000000000000000000000600052602160045260246000fd5b0217905550505060608201518160040160006101000a81548160ff02191690831515021790555090505050505050505062000616565b604051806080016040528060008019168152602001600081526020016000151581526020016000600181111562000504577f4e487b7100000000000000000000000000000000000000000000000000000000600052602160045260246000fd5b81525090565b6000815190506200051b81620005e2565b92915050565b6000815190506200053281620005fc565b92915050565b600080600080608085870312156200054f57600080fd5b60006200055f878288016200050a565b945050602062000572878288016200050a565b9350506040620005858782880162000521565b9250506060620005988782880162000521565b91505092959194509250565b6000620005b182620005b8565b9050919050565b600073ffffffffffffffffffffffffffffffffffffffff82169050919050565b6000819050919050565b620005ed81620005a4565b8114620005f957600080fd5b50565b6200060781620005d8565b81146200061357600080fd5b50565b611fad80620006266000396000f3fe6080604052600436106100705760003560e01c8063b4a087a61161004e578063b4a087a6146100e0578063de292789146100f7578063de3bde3914610122578063edd7b7f01461015f57610070565b80633a6a4d2e146100755780633af7f659146100a0578063709436b5146100b7575b600080fd5b34801561008157600080fd5b5061008a61017b565b6040516100979190611cd7565b60405180910390f35b3480156100ac57600080fd5b506100b5610c3d565b005b3480156100c357600080fd5b506100de60048036038101906100d991906117e7565b610e57565b005b3480156100ec57600080fd5b506100f56111ac565b005b34801561010357600080fd5b5061010c6113c6565b6040516101199190611b7f565b60405180910390f35b34801561012e57600080fd5b50610149600480360381019061014491906117e7565b6113dd565b6040516101569190611b9a565b60405180910390f35b61017960048036038101906101749190611795565b611458565b005b600061018561168e565b6101e45760011515600360009054906101000a900460ff161515146101df576040517f08c379a00000000000000000000000000000000000000000000000000000000081526004016101d690611bb5565b60405180910390fd5b6104d3565b600060056000600360019054906101000a900473ffffffffffffffffffffffffffffffffffffffff1673ffffffffffffffffffffffffffffffffffffffff1673ffffffffffffffffffffffffffffffffffffffff16815260200190815260200160002060010173__$c771099da9bd0a3ff17f09a7346d3727ae$__633fc4cb4c90916040518263ffffffff1660e01b81526004016102829190611c55565b60206040518083038186803b15801561029a57600080fd5b505af41580156102ae573d6000803e3d6000fd5b505050506040513d601f19601f820116820180604052508101906102d2919061176c565b9050600060056000600460009054906101000a900473ffffffffffffffffffffffffffffffffffffffff1673ffffffffffffffffffffffffffffffffffffffff1673ffffffffffffffffffffffffffffffffffffffff16815260200190815260200160002060010173__$c771099da9bd0a3ff17f09a7346d3727ae$__633fc4cb4c90916040518263ffffffff1660e01b81526004016103729190611c55565b60206040518083038186803b15801561038a57600080fd5b505af415801561039e573d6000803e3d6000fd5b505050506040513d601f19601f820116820180604052508101906103c2919061176c565b9050811580156103d0575080155b156103da57600080fd5b8161045557600460009054906101000a900473ffffffffffffffffffffffffffffffffffffffff1673ffffffffffffffffffffffffffffffffffffffff166108fc6000549081150290604051600060405180830381858888f19350505050158015610449573d6000803e3d6000fd5b50600192505050610c3a565b806104d057600360019054906101000a900473ffffffffffffffffffffffffffffffffffffffff1673ffffffffffffffffffffffffffffffffffffffff166108fc6000549081150290604051600060405180830381858888f193505050501580156104c4573d6000803e3d6000fd5b50600192505050610c3a565b50505b600060056000600360019054906101000a900473ffffffffffffffffffffffffffffffffffffffff1673ffffffffffffffffffffffffffffffffffffffff1673ffffffffffffffffffffffffffffffffffffffff16815260200190815260200160002060010173__$c771099da9bd0a3ff17f09a7346d3727ae$__63456f388490916040518263ffffffff1660e01b81526004016105719190611c55565b60206040518083038186803b15801561058957600080fd5b505af415801561059d573d6000803e3d6000fd5b505050506040513d601f19601f820116820180604052508101906105c1919061183b565b9050600060056000600460009054906101000a900473ffffffffffffffffffffffffffffffffffffffff1673ffffffffffffffffffffffffffffffffffffffff1673ffffffffffffffffffffffffffffffffffffffff16815260200190815260200160002060010173__$c771099da9bd0a3ff17f09a7346d3727ae$__63456f388490916040518263ffffffff1660e01b81526004016106619190611c55565b60206040518083038186803b15801561067957600080fd5b505af415801561068d573d6000803e3d6000fd5b505050506040513d601f19601f820116820180604052508101906106b1919061183b565b9050600081836106c19190611da1565b905060006002826106d29190611e63565b14156109895760006002811115610712577f4e487b7100000000000000000000000000000000000000000000000000000000600052602160045260246000fd5b60056000600360019054906101000a900473ffffffffffffffffffffffffffffffffffffffff1673ffffffffffffffffffffffffffffffffffffffff1673ffffffffffffffffffffffffffffffffffffffff16815260200190815260200160002060000160009054906101000a900460ff1660028111156107bc577f4e487b7100000000000000000000000000000000000000000000000000000000600052602160045260246000fd5b141561082e57600360019054906101000a900473ffffffffffffffffffffffffffffffffffffffff1673ffffffffffffffffffffffffffffffffffffffff166108fc6000549081150290604051600060405180830381858888f1935050505015801561082c573d6000803e3d6000fd5b505b60006002811115610868577f4e487b7100000000000000000000000000000000000000000000000000000000600052602160045260246000fd5b60056000600460009054906101000a900473ffffffffffffffffffffffffffffffffffffffff1673ffffffffffffffffffffffffffffffffffffffff1673ffffffffffffffffffffffffffffffffffffffff16815260200190815260200160002060000160009054906101000a900460ff166002811115610912577f4e487b7100000000000000000000000000000000000000000000000000000000600052602160045260246000fd5b141561098457600460009054906101000a900473ffffffffffffffffffffffffffffffffffffffff1673ffffffffffffffffffffffffffffffffffffffff166108fc6000549081150290604051600060405180830381858888f19350505050158015610982573d6000803e3d6000fd5b505b610c36565b600160028111156109c3577f4e487b7100000000000000000000000000000000000000000000000000000000600052602160045260246000fd5b60056000600360019054906101000a900473ffffffffffffffffffffffffffffffffffffffff1673ffffffffffffffffffffffffffffffffffffffff1673ffffffffffffffffffffffffffffffffffffffff16815260200190815260200160002060000160009054906101000a900460ff166002811115610a6d577f4e487b7100000000000000000000000000000000000000000000000000000000600052602160045260246000fd5b1415610adf57600360019054906101000a900473ffffffffffffffffffffffffffffffffffffffff1673ffffffffffffffffffffffffffffffffffffffff166108fc6000549081150290604051600060405180830381858888f19350505050158015610add573d6000803e3d6000fd5b505b60016002811115610b19577f4e487b7100000000000000000000000000000000000000000000000000000000600052602160045260246000fd5b60056000600460009054906101000a900473ffffffffffffffffffffffffffffffffffffffff1673ffffffffffffffffffffffffffffffffffffffff1673ffffffffffffffffffffffffffffffffffffffff16815260200190815260200160002060000160009054906101000a900460ff166002811115610bc3577f4e487b7100000000000000000000000000000000000000000000000000000000600052602160045260246000fd5b1415610c3557600460009054906101000a900473ffffffffffffffffffffffffffffffffffffffff1673ffffffffffffffffffffffffffffffffffffffff166108fc6000549081150290604051600060405180830381858888f19350505050158015610c33573d6000803e3d6000fd5b505b5b5050505b90565b60011515600560003373ffffffffffffffffffffffffffffffffffffffff1673ffffffffffffffffffffffffffffffffffffffff16815260200190815260200160002060040160009054906101000a900460ff16151514610cd3576040517f08c379a0000000000000000000000000000000000000000000000000000000008152600401610cca90611c15565b60405180910390fd5b60001515600560003373ffffffffffffffffffffffffffffffffffffffff1673ffffffffffffffffffffffffffffffffffffffff16815260200190815260200160002060000160019054906101000a900460ff16151514610d69576040517f08c379a0000000000000000000000000000000000000000000000000000000008152600401610d6090611c35565b60405180910390fd5b6001600560003373ffffffffffffffffffffffffffffffffffffffff1673ffffffffffffffffffffffffffffffffffffffff16815260200190815260200160002060000160006101000a81548160ff02191690836002811115610df5577f4e487b7100000000000000000000000000000000000000000000000000000000600052602160045260246000fd5b02179055506001600560003373ffffffffffffffffffffffffffffffffffffffff1673ffffffffffffffffffffffffffffffffffffffff16815260200190815260200160002060000160016101000a81548160ff021916908315150217905550565b60011515600560003373ffffffffffffffffffffffffffffffffffffffff1673ffffffffffffffffffffffffffffffffffffffff16815260200190815260200160002060040160009054906101000a900460ff16151514610eed576040517f08c379a0000000000000000000000000000000000000000000000000000000008152600401610ee490611c15565b60405180910390fd5b600560003373ffffffffffffffffffffffffffffffffffffffff1673ffffffffffffffffffffffffffffffffffffffff16815260200190815260200160002060010173__$c771099da9bd0a3ff17f09a7346d3727ae$__639f83ed7b909184846040518463ffffffff1660e01b8152600401610f6b93929190611c99565b60006040518083038186803b158015610f8357600080fd5b505af4158015610f97573d6000803e3d6000fd5b50505050600060056000600360019054906101000a900473ffffffffffffffffffffffffffffffffffffffff1673ffffffffffffffffffffffffffffffffffffffff1673ffffffffffffffffffffffffffffffffffffffff16815260200190815260200160002060010173__$c771099da9bd0a3ff17f09a7346d3727ae$__633fc4cb4c90916040518263ffffffff1660e01b81526004016110399190611c55565b60206040518083038186803b15801561105157600080fd5b505af4158015611065573d6000803e3d6000fd5b505050506040513d601f19601f82011682018060405250810190611089919061176c565b9050600060056000600460009054906101000a900473ffffffffffffffffffffffffffffffffffffffff1673ffffffffffffffffffffffffffffffffffffffff1673ffffffffffffffffffffffffffffffffffffffff16815260200190815260200160002060010173__$c771099da9bd0a3ff17f09a7346d3727ae$__633fc4cb4c90916040518263ffffffff1660e01b81526004016111299190611c55565b60206040518083038186803b15801561114157600080fd5b505af4158015611155573d6000803e3d6000fd5b505050506040513d601f19601f82011682018060405250810190611179919061176c565b90508180156111855750805b156111a6576001600360006101000a81548160ff0219169083151502179055505b50505050565b60011515600560003373ffffffffffffffffffffffffffffffffffffffff1673ffffffffffffffffffffffffffffffffffffffff16815260200190815260200160002060040160009054906101000a900460ff16151514611242576040517f08c379a000000000000000000000000000000000000000000000000000000000815260040161123990611c15565b60405180910390fd5b60001515600560003373ffffffffffffffffffffffffffffffffffffffff1673ffffffffffffffffffffffffffffffffffffffff16815260200190815260200160002060000160019054906101000a900460ff161515146112d8576040517f08c379a00000000000000000000000000000000000000000000000000000000081526004016112cf90611c35565b60405180910390fd5b6000600560003373ffffffffffffffffffffffffffffffffffffffff1673ffffffffffffffffffffffffffffffffffffffff16815260200190815260200160002060000160006101000a81548160ff02191690836002811115611364577f4e487b7100000000000000000000000000000000000000000000000000000000600052602160045260246000fd5b02179055506001600560003373ffffffffffffffffffffffffffffffffffffffff1673ffffffffffffffffffffffffffffffffffffffff16815260200190815260200160002060000160016101000a81548160ff021916908315150217905550565b6000600360009054906101000a900460ff16905090565b6000600283836040516020016113f4929190611b57565b6040516020818303038152906040526040516114109190611b40565b602060405180830381855afa15801561142d573d6000803e3d6000fd5b5050506040513d601f19601f8201168201806040525081019061145091906117be565b905092915050565b60011515600560003373ffffffffffffffffffffffffffffffffffffffff1673ffffffffffffffffffffffffffffffffffffffff16815260200190815260200160002060040160009054906101000a900460ff161515146114ee576040517f08c379a00000000000000000000000000000000000000000000000000000000081526004016114e590611c15565b60405180910390fd5b60011515600560003373ffffffffffffffffffffffffffffffffffffffff1673ffffffffffffffffffffffffffffffffffffffff16815260200190815260200160002060000160019054906101000a900460ff16151514611584576040517f08c379a000000000000000000000000000000000000000000000000000000000815260040161157b90611bf5565b60405180910390fd5b600034116115c7576040517f08c379a00000000000000000000000000000000000000000000000000000000081526004016115be90611bd5565b60405180910390fd5b600560003373ffffffffffffffffffffffffffffffffffffffff1673ffffffffffffffffffffffffffffffffffffffff16815260200190815260200160002060010173__$c771099da9bd0a3ff17f09a7346d3727ae$__63603039a69091836040518363ffffffff1660e01b8152600401611643929190611c70565b60006040518083038186803b15801561165b57600080fd5b505af415801561166f573d6000803e3d6000fd5b50505050346000808282546116849190611da1565b9250508190555050565b6000600254421015905090565b60006116ae6116a984611d23565b611cf2565b9050828152602081018484840111156116c657600080fd5b6116d1848285611e17565b509392505050565b6000815190506116e881611f32565b92915050565b6000813590506116fd81611f49565b92915050565b60008151905061171281611f49565b92915050565b600082601f83011261172957600080fd5b813561173984826020860161169b565b91505092915050565b60008135905061175181611f60565b92915050565b60008151905061176681611f60565b92915050565b60006020828403121561177e57600080fd5b600061178c848285016116d9565b91505092915050565b6000602082840312156117a757600080fd5b60006117b5848285016116ee565b91505092915050565b6000602082840312156117d057600080fd5b60006117de84828501611703565b91505092915050565b600080604083850312156117fa57600080fd5b600083013567ffffffffffffffff81111561181457600080fd5b61182085828601611718565b925050602061183185828601611742565b9150509250929050565b60006020828403121561184d57600080fd5b600061185b84828501611757565b91505092915050565b61186d81611df7565b82525050565b61187c81611e03565b82525050565b61188b81611e03565b82525050565b600061189c82611d53565b6118a68185611d69565b93506118b6818560208601611e26565b80840191505092915050565b60006118cd82611d5e565b6118d78185611d85565b93506118e7818560208601611e26565b6118f081611f21565b840191505092915050565b600061190682611d5e565b6119108185611d96565b9350611920818560208601611e26565b80840191505092915050565b6000611939603683611d74565b91507f74686520636f6d6d6974732077657265206e6f742072657665616c656420796560008301527f742c207468657265206973207374696c6c2074696d65000000000000000000006020830152604082019050919050565b600061199f602383611d74565b91507f7061727469636970616e7473206e65656420746f2062657420736f6d6520766160008301527f6c756500000000000000000000000000000000000000000000000000000000006020830152604082019050919050565b6000611a05602983611d74565b91507f7061727469636970616e74206e6565647320746f20686176652073656c65637460008301527f6564206120706c617900000000000000000000000000000000000000000000006020830152604082019050919050565b6000611a6b602e83611d74565b91507f6d73672e73656e646572206e6565647320746f206265206f6e65206f6620746860008301527f65207061727469636970616e74730000000000000000000000000000000000006020830152604082019050919050565b6000611ad1601c83611d74565b91507f796f752063616e2774206368616e676520796f75722063686f696365000000006000830152602082019050919050565b8082525050565b611b1481611e0d565b82525050565b611b2381611e0d565b82525050565b611b3a611b3582611e0d565b611e59565b82525050565b6000611b4c8284611891565b915081905092915050565b6000611b6382856118fb565b9150611b6f8284611b29565b6020820191508190509392505050565b6000602082019050611b946000830184611864565b92915050565b6000602082019050611baf6000830184611873565b92915050565b60006020820190508181036000830152611bce8161192c565b9050919050565b60006020820190508181036000830152611bee81611992565b9050919050565b60006020820190508181036000830152611c0e816119f8565b9050919050565b60006020820190508181036000830152611c2e81611a5e565b9050919050565b60006020820190508181036000830152611c4e81611ac4565b9050919050565b6000602082019050611c6a6000830184611b04565b92915050565b6000604082019050611c856000830185611b04565b611c926020830184611882565b9392505050565b6000606082019050611cae6000830186611b04565b8181036020830152611cc081856118c2565b9050611ccf6040830184611b1a565b949350505050565b6000602082019050611cec6000830184611b0b565b92915050565b6000604051905081810181811067ffffffffffffffff82111715611d1957611d18611ef2565b5b8060405250919050565b600067ffffffffffffffff821115611d3e57611d3d611ef2565b5b601f19601f8301169050602081019050919050565b600081519050919050565b600081519050919050565b600081905092915050565b600082825260208201905092915050565b600082825260208201905092915050565b600081905092915050565b6000611dac82611e0d565b9150611db783611e0d565b9250827fffffffffffffffffffffffffffffffffffffffffffffffffffffffffffffffff03821115611dec57611deb611e94565b5b828201905092915050565b60008115159050919050565b6000819050919050565b6000819050919050565b82818337600083830152505050565b60005b83811015611e44578082015181840152602081019050611e29565b83811115611e53576000848401525b50505050565b6000819050919050565b6000611e6e82611e0d565b9150611e7983611e0d565b925082611e8957611e88611ec3565b5b828206905092915050565b7f4e487b7100000000000000000000000000000000000000000000000000000000600052601160045260246000fd5b7f4e487b7100000000000000000000000000000000000000000000000000000000600052601260045260246000fd5b7f4e487b7100000000000000000000000000000000000000000000000000000000600052604160045260246000fd5b6000601f19601f8301169050919050565b611f3b81611df7565b8114611f4657600080fd5b50565b611f5281611e03565b8114611f5d57600080fd5b50565b611f6981611e0d565b8114611f7457600080fd5b5056fea264697066735822122023805dc75b9887a1249c6d19d73e015f5057cbb2394fe4be0f86083d1e3d3a2564736f6c63430008000033",
  "linkReferences": {
    "contracts/TwoPhaseCommit.sol": {
      "TwoPhaseCommit": [
        {
          "length": 20,
          "start": 2162
        },
        {
          "length": 20,
          "start": 2402
        },
        {
          "length": 20,
          "start": 2913
        },
        {
          "length": 20,
          "start": 3153
        },
        {
          "length": 20,
          "start": 5463
        },
        {
          "length": 20,
          "start": 5673
        },
        {
          "length": 20,
          "start": 5913
        },
        {
          "length": 20,
          "start": 7217
        }
      ]
    }
  },
  "deployedLinkReferences": {
    "contracts/TwoPhaseCommit.sol": {
      "TwoPhaseCommit": [
        {
          "length": 20,
          "start": 588
        },
        {
          "length": 20,
          "start": 828
        },
        {
          "length": 20,
          "start": 1339
        },
        {
          "length": 20,
          "start": 1579
        },
        {
          "length": 20,
          "start": 3889
        },
        {
          "length": 20,
          "start": 4099
        },
        {
          "length": 20,
          "start": 4339
        },
        {
          "length": 20,
          "start": 5643
        }
      ]
    }
  }
}