{
  "_format": "hh-sol-artifact-1",
  "contractName": "Game",
  "sourceName": "contracts/Game.sol",
  "abi": [
    {
      "inputs": [],
      "name": "oddEven",
      "outputs": [
        {
          "internalType": "uint256",
          "name": "",
          "type": "uint256"
        }
      ],
      "stateMutability": "view",
      "type": "function"
    },
    {
      "inputs": [
        {
          "internalType": "uint256",
          "name": "bet1",
          "type": "uint256"
        },
        {
          "internalType": "uint256",
          "name": "bet2",
          "type": "uint256"
        }
      ],
      "name": "pool",
      "outputs": [],
      "stateMutability": "nonpayable",
      "type": "function"
    },
    {
      "inputs": [],
      "name": "poolBalance",
      "outputs": [
        {
          "internalType": "uint256",
          "name": "",
          "type": "uint256"
        }
      ],
      "stateMutability": "view",
      "type": "function"
    },
    {
      "inputs": [],
      "name": "poolReward",
      "outputs": [
        {
          "internalType": "uint256",
          "name": "",
          "type": "uint256"
        }
      ],
      "stateMutability": "view",
      "type": "function"
    }
  ],
  "bytecode": "0x608060405234801561001057600080fd5b5061025a806100206000396000f3fe608060405234801561001057600080fd5b506004361061004c5760003560e01c806396365d44146100515780639b1b615e1461006f578063fa3695c01461008b578063fef10b95146100a9575b600080fd5b6100596100c7565b6040516100669190610163565b60405180910390f35b61008960048036038101906100849190610118565b6100d0565b005b6100936100e6565b6040516100a09190610163565b60405180910390f35b6100b16100fd565b6040516100be9190610163565b60405180910390f35b60008054905090565b80826100dc919061017e565b6000819055505050565b60006002546001546100f8919061017e565b905090565b60005481565b6000813590506101128161020d565b92915050565b6000806040838503121561012b57600080fd5b600061013985828601610103565b925050602061014a85828601610103565b9150509250929050565b61015d816101d4565b82525050565b60006020820190506101786000830184610154565b92915050565b6000610189826101d4565b9150610194836101d4565b9250827fffffffffffffffffffffffffffffffffffffffffffffffffffffffffffffffff038211156101c9576101c86101de565b5b828201905092915050565b6000819050919050565b7f4e487b7100000000000000000000000000000000000000000000000000000000600052601160045260246000fd5b610216816101d4565b811461022157600080fd5b5056fea2646970667358221220282ca6bc5673490a5731d2a14fb946c2c035e2bf4f06fbd7d573dd7445c1c65564736f6c63430008000033",
  "linkReferences": {},
  "deployedLinkReferences": {}
}