{
  "_format": "hh-sol-artifact-1",
  "contractName": "TwoPhaseCommit",
  "sourceName": "contracts/Game.sol",
  "abi": [
    {
      "inputs": [
        {
          "internalType": "uint256",
          "name": "_endOfCommitRequest",
          "type": "uint256"
        }
      ],
      "stateMutability": "nonpayable",
      "type": "constructor"
    },
    {
      "inputs": [],
      "name": "abortCounter",
      "outputs": [
        {
          "internalType": "uint256",
          "name": "",
          "type": "uint256"
        }
      ],
      "stateMutability": "view",
      "type": "function"
    },
    {
      "inputs": [],
      "name": "commit",
      "outputs": [],
      "stateMutability": "nonpayable",
      "type": "function"
    },
    {
      "inputs": [],
      "name": "commitCounter",
      "outputs": [
        {
          "internalType": "uint256",
          "name": "",
          "type": "uint256"
        }
      ],
      "stateMutability": "view",
      "type": "function"
    },
    {
      "inputs": [
        {
          "internalType": "bool",
          "name": "agreement",
          "type": "bool"
        }
      ],
      "name": "commitRequest",
      "outputs": [],
      "stateMutability": "nonpayable",
      "type": "function"
    },
    {
      "inputs": [],
      "name": "endOfCommitRequest",
      "outputs": [
        {
          "internalType": "uint256",
          "name": "",
          "type": "uint256"
        }
      ],
      "stateMutability": "view",
      "type": "function"
    }
  ],
  "bytecode": "0x608060405234801561001057600080fd5b5060405161044238038061044283398181016040528101906100329190610054565b806000819055505061009e565b60008151905061004e81610087565b92915050565b60006020828403121561006657600080fd5b60006100748482850161003f565b91505092915050565b6000819050919050565b6100908161007d565b811461009b57600080fd5b50565b610395806100ad6000396000f3fe608060405234801561001057600080fd5b50600436106100575760003560e01c806331a0e8731461005c5780633c7a3aff1461007a57806361e279c71461008457806393185071146100a2578063d0a37de3146100be575b600080fd5b6100646100dc565b6040516100719190610288565b60405180910390f35b6100826100e2565b005b61008c6101a4565b6040516100999190610288565b60405180910390f35b6100bc60048036038101906100b79190610227565b6101aa565b005b6100c66101f7565b6040516100d39190610288565b60405180910390f35b60025481565b60005442116100f057600080fd5b600060025414156101a157600360009054906101000a900473ffffffffffffffffffffffffffffffffffffffff1673ffffffffffffffffffffffffffffffffffffffff1663fa3695c06040518163ffffffff1660e01b815260040160206040518083038186803b15801561016357600080fd5b505afa158015610177573d6000803e3d6000fd5b505050506040513d601f19601f8201168201806040525081019061019b9190610250565b506101a2565b5b565b60015481565b60005442106101b857600080fd5b80156101db57600160008154809291906101d1906102b9565b91905055506101f4565b600260008154809291906101ee906102b9565b91905055505b50565b60005481565b60008135905061020c81610331565b92915050565b60008151905061022181610348565b92915050565b60006020828403121561023957600080fd5b6000610247848285016101fd565b91505092915050565b60006020828403121561026257600080fd5b600061027084828501610212565b91505092915050565b610282816102af565b82525050565b600060208201905061029d6000830184610279565b92915050565b60008115159050919050565b6000819050919050565b60006102c4826102af565b91507fffffffffffffffffffffffffffffffffffffffffffffffffffffffffffffffff8214156102f7576102f6610302565b5b600182019050919050565b7f4e487b7100000000000000000000000000000000000000000000000000000000600052601160045260246000fd5b61033a816102a3565b811461034557600080fd5b50565b610351816102af565b811461035c57600080fd5b5056fea2646970667358221220e9b861a4337a639095b4c0c5a9ea2de2c61a1a2400e0a62f0ea61bb4a8a7ac8d64736f6c63430008000033",
  "linkReferences": {},
  "deployedLinkReferences": {}
}