{
  "_format": "hh-sol-artifact-1",
  "contractName": "EvenOdd",
  "sourceName": "contracts/EvenOdd.sol",
  "abi": [
    {
      "inputs": [
        {
          "internalType": "address payable",
          "name": "_address1",
          "type": "address"
        },
        {
          "internalType": "address payable",
          "name": "_address2",
          "type": "address"
        }
      ],
      "stateMutability": "nonpayable",
      "type": "constructor"
    },
    {
      "inputs": [
        {
          "internalType": "uint256",
          "name": "_choice",
          "type": "uint256"
        }
      ],
      "name": "choice",
      "outputs": [],
      "stateMutability": "nonpayable",
      "type": "function"
    },
    {
      "inputs": [
        {
          "internalType": "bytes32",
          "name": "h",
          "type": "bytes32"
        }
      ],
      "name": "commit",
      "outputs": [],
      "stateMutability": "payable",
      "type": "function"
    },
    {
      "inputs": [],
      "name": "gameLogic",
      "outputs": [],
      "stateMutability": "nonpayable",
      "type": "function"
    },
    {
      "inputs": [],
      "name": "getResult",
      "outputs": [
        {
          "internalType": "bool",
          "name": "",
          "type": "bool"
        }
      ],
      "stateMutability": "view",
      "type": "function"
    },
    {
      "inputs": [
        {
          "internalType": "string",
          "name": "nonce",
          "type": "string"
        },
        {
          "internalType": "uint256",
          "name": "val",
          "type": "uint256"
        }
      ],
      "name": "hashData",
      "outputs": [
        {
          "internalType": "bytes32",
          "name": "",
          "type": "bytes32"
        }
      ],
      "stateMutability": "pure",
      "type": "function"
    },
    {
      "inputs": [
        {
          "internalType": "string",
          "name": "nonce",
          "type": "string"
        },
        {
          "internalType": "uint256",
          "name": "val",
          "type": "uint256"
        }
      ],
      "name": "reveal",
      "outputs": [],
      "stateMutability": "nonpayable",
      "type": "function"
    }
  ],
  "bytecode": "0x6080604052600080553480156200001557600080fd5b5060405162001fba38038062001fba83398181016040528101906200003b919062000511565b6000600160006101000a81548160ff02191690831515021790555081600360006101000a81548173ffffffffffffffffffffffffffffffffffffffff021916908373ffffffffffffffffffffffffffffffffffffffff16021790555080600460006101000a81548173ffffffffffffffffffffffffffffffffffffffff021916908373ffffffffffffffffffffffffffffffffffffffff160217905550620000e262000494565b620000ec62000494565b604051806080016040528060028081111562000131577f4e487b7100000000000000000000000000000000000000000000000000000000600052602160045260246000fd5b815260200160001515815260200183815260200160011515815250600560008673ffffffffffffffffffffffffffffffffffffffff1673ffffffffffffffffffffffffffffffffffffffff16815260200190815260200160002060008201518160000160006101000a81548160ff02191690836002811115620001dd577f4e487b7100000000000000000000000000000000000000000000000000000000600052602160045260246000fd5b021790555060208201518160000160016101000a81548160ff021916908315150217905550604082015181600101600082015181600001556020820151816001015560408201518160020160006101000a81548160ff02191690831515021790555060608201518160020160016101000a81548160ff0219169083600181111562000291577f4e487b7100000000000000000000000000000000000000000000000000000000600052602160045260246000fd5b0217905550505060608201518160040160006101000a81548160ff021916908315150217905550905050604051806080016040528060028081111562000300577f4e487b7100000000000000000000000000000000000000000000000000000000600052602160045260246000fd5b815260200160001515815260200182815260200160011515815250600560008573ffffffffffffffffffffffffffffffffffffffff1673ffffffffffffffffffffffffffffffffffffffff16815260200190815260200160002060008201518160000160006101000a81548160ff02191690836002811115620003ac577f4e487b7100000000000000000000000000000000000000000000000000000000600052602160045260246000fd5b021790555060208201518160000160016101000a81548160ff021916908315150217905550604082015181600101600082015181600001556020820151816001015560408201518160020160006101000a81548160ff02191690831515021790555060608201518160020160016101000a81548160ff0219169083600181111562000460577f4e487b7100000000000000000000000000000000000000000000000000000000600052602160045260246000fd5b0217905550505060608201518160040160006101000a81548160ff02191690831515021790555090505050505050620005a0565b6040518060800160405280600080191681526020016000815260200160001515815260200160006001811115620004f4577f4e487b7100000000000000000000000000000000000000000000000000000000600052602160045260246000fd5b81525090565b6000815190506200050b8162000586565b92915050565b600080604083850312156200052557600080fd5b60006200053585828601620004fa565b92505060206200054885828601620004fa565b9150509250929050565b60006200055f8262000566565b9050919050565b600073ffffffffffffffffffffffffffffffffffffffff82169050919050565b620005918162000552565b81146200059d57600080fd5b50565b611a0a80620005b06000396000f3fe6080604052600436106100555760003560e01c8063134087a21461005a578063708b473014610071578063877136291461009a578063de292789146100c3578063de3bde39146100ee578063f14fcbc81461012b575b600080fd5b34801561006657600080fd5b5061006f610147565b005b34801561007d57600080fd5b50610098600480360381019061009391906113fd565b610b7f565b005b3480156100a657600080fd5b506100c160048036038101906100bc9190611451565b610e3d565b005b3480156100cf57600080fd5b506100d86110c2565b6040516100e59190611657565b60405180910390f35b3480156100fa57600080fd5b50610115600480360381019061011091906113fd565b6110d9565b6040516101229190611672565b60405180910390f35b610145600480360381019061014091906113ab565b611154565b005b600060056000600360009054906101000a900473ffffffffffffffffffffffffffffffffffffffff1673ffffffffffffffffffffffffffffffffffffffff1673ffffffffffffffffffffffffffffffffffffffff16815260200190815260200160002060010173__$c771099da9bd0a3ff17f09a7346d3727ae$__633fc4cb4c90916040518263ffffffff1660e01b81526004016101e591906116cd565b60206040518083038186803b1580156101fd57600080fd5b505af4158015610211573d6000803e3d6000fd5b505050506040513d601f19601f820116820180604052508101906102359190611382565b9050600060056000600460009054906101000a900473ffffffffffffffffffffffffffffffffffffffff1673ffffffffffffffffffffffffffffffffffffffff1673ffffffffffffffffffffffffffffffffffffffff16815260200190815260200160002060010173__$c771099da9bd0a3ff17f09a7346d3727ae$__633fc4cb4c90916040518263ffffffff1660e01b81526004016102d591906116cd565b60206040518083038186803b1580156102ed57600080fd5b505af4158015610301573d6000803e3d6000fd5b505050506040513d601f19601f820116820180604052508101906103259190611382565b905081158015610333575080155b1561033d57600080fd5b816103ae57600460009054906101000a900473ffffffffffffffffffffffffffffffffffffffff1673ffffffffffffffffffffffffffffffffffffffff166108fc6000549081150290604051600060405180830381858888f193505050501580156103ac573d6000803e3d6000fd5b505b8061041f57600360009054906101000a900473ffffffffffffffffffffffffffffffffffffffff1673ffffffffffffffffffffffffffffffffffffffff166108fc6000549081150290604051600060405180830381858888f1935050505015801561041d573d6000803e3d6000fd5b505b60056000600460009054906101000a900473ffffffffffffffffffffffffffffffffffffffff1673ffffffffffffffffffffffffffffffffffffffff1673ffffffffffffffffffffffffffffffffffffffff16815260200190815260200160002060010173__$c771099da9bd0a3ff17f09a7346d3727ae$__63456f388490916040518263ffffffff1660e01b81526004016104bb91906116cd565b60206040518083038186803b1580156104d357600080fd5b505af41580156104e7573d6000803e3d6000fd5b505050506040513d601f19601f8201168201806040525081019061050b919061147a565b60056000600360009054906101000a900473ffffffffffffffffffffffffffffffffffffffff1673ffffffffffffffffffffffffffffffffffffffff1673ffffffffffffffffffffffffffffffffffffffff16815260200190815260200160002060010173__$c771099da9bd0a3ff17f09a7346d3727ae$__63456f388490916040518263ffffffff1660e01b81526004016105a791906116cd565b60206040518083038186803b1580156105bf57600080fd5b505af41580156105d3573d6000803e3d6000fd5b505050506040513d601f19601f820116820180604052508101906105f7919061147a565b61060191906117fe565b60028190555060006002805461061791906118c0565b14156108ce5760006002811115610657577f4e487b7100000000000000000000000000000000000000000000000000000000600052602160045260246000fd5b60056000600360009054906101000a900473ffffffffffffffffffffffffffffffffffffffff1673ffffffffffffffffffffffffffffffffffffffff1673ffffffffffffffffffffffffffffffffffffffff16815260200190815260200160002060000160009054906101000a900460ff166002811115610701577f4e487b7100000000000000000000000000000000000000000000000000000000600052602160045260246000fd5b141561077357600360009054906101000a900473ffffffffffffffffffffffffffffffffffffffff1673ffffffffffffffffffffffffffffffffffffffff166108fc6000549081150290604051600060405180830381858888f19350505050158015610771573d6000803e3d6000fd5b505b600060028111156107ad577f4e487b7100000000000000000000000000000000000000000000000000000000600052602160045260246000fd5b60056000600460009054906101000a900473ffffffffffffffffffffffffffffffffffffffff1673ffffffffffffffffffffffffffffffffffffffff1673ffffffffffffffffffffffffffffffffffffffff16815260200190815260200160002060000160009054906101000a900460ff166002811115610857577f4e487b7100000000000000000000000000000000000000000000000000000000600052602160045260246000fd5b14156108c957600460009054906101000a900473ffffffffffffffffffffffffffffffffffffffff1673ffffffffffffffffffffffffffffffffffffffff166108fc6000549081150290604051600060405180830381858888f193505050501580156108c7573d6000803e3d6000fd5b505b610b7b565b60016002811115610908577f4e487b7100000000000000000000000000000000000000000000000000000000600052602160045260246000fd5b60056000600360009054906101000a900473ffffffffffffffffffffffffffffffffffffffff1673ffffffffffffffffffffffffffffffffffffffff1673ffffffffffffffffffffffffffffffffffffffff16815260200190815260200160002060000160009054906101000a900460ff1660028111156109b2577f4e487b7100000000000000000000000000000000000000000000000000000000600052602160045260246000fd5b1415610a2457600360009054906101000a900473ffffffffffffffffffffffffffffffffffffffff1673ffffffffffffffffffffffffffffffffffffffff166108fc6000549081150290604051600060405180830381858888f19350505050158015610a22573d6000803e3d6000fd5b505b60016002811115610a5e577f4e487b7100000000000000000000000000000000000000000000000000000000600052602160045260246000fd5b60056000600460009054906101000a900473ffffffffffffffffffffffffffffffffffffffff1673ffffffffffffffffffffffffffffffffffffffff1673ffffffffffffffffffffffffffffffffffffffff16815260200190815260200160002060000160009054906101000a900460ff166002811115610b08577f4e487b7100000000000000000000000000000000000000000000000000000000600052602160045260246000fd5b1415610b7a57600460009054906101000a900473ffffffffffffffffffffffffffffffffffffffff1673ffffffffffffffffffffffffffffffffffffffff166108fc6000549081150290604051600060405180830381858888f19350505050158015610b78573d6000803e3d6000fd5b505b5b5050565b600560003373ffffffffffffffffffffffffffffffffffffffff1673ffffffffffffffffffffffffffffffffffffffff16815260200190815260200160002060010173__$c771099da9bd0a3ff17f09a7346d3727ae$__639f83ed7b909184846040518463ffffffff1660e01b8152600401610bfd93929190611711565b60006040518083038186803b158015610c1557600080fd5b505af4158015610c29573d6000803e3d6000fd5b50505050600060056000600360009054906101000a900473ffffffffffffffffffffffffffffffffffffffff1673ffffffffffffffffffffffffffffffffffffffff1673ffffffffffffffffffffffffffffffffffffffff16815260200190815260200160002060010173__$c771099da9bd0a3ff17f09a7346d3727ae$__633fc4cb4c90916040518263ffffffff1660e01b8152600401610ccb91906116cd565b60206040518083038186803b158015610ce357600080fd5b505af4158015610cf7573d6000803e3d6000fd5b505050506040513d601f19601f82011682018060405250810190610d1b9190611382565b9050600060056000600460009054906101000a900473ffffffffffffffffffffffffffffffffffffffff1673ffffffffffffffffffffffffffffffffffffffff1673ffffffffffffffffffffffffffffffffffffffff16815260200190815260200160002060010173__$c771099da9bd0a3ff17f09a7346d3727ae$__633fc4cb4c90916040518263ffffffff1660e01b8152600401610dbb91906116cd565b60206040518083038186803b158015610dd357600080fd5b505af4158015610de7573d6000803e3d6000fd5b505050506040513d601f19601f82011682018060405250810190610e0b9190611382565b9050818015610e175750805b15610e375760018060006101000a81548160ff0219169083151502179055505b50505050565b60001515600560003373ffffffffffffffffffffffffffffffffffffffff1673ffffffffffffffffffffffffffffffffffffffff16815260200190815260200160002060000160019054906101000a900460ff16151514610ed3576040517f08c379a0000000000000000000000000000000000000000000000000000000008152600401610eca9061168d565b60405180910390fd5b6000811415610fc9576000600560003373ffffffffffffffffffffffffffffffffffffffff1673ffffffffffffffffffffffffffffffffffffffff16815260200190815260200160002060000160006101000a81548160ff02191690836002811115610f68577f4e487b7100000000000000000000000000000000000000000000000000000000600052602160045260246000fd5b02179055506001600560003373ffffffffffffffffffffffffffffffffffffffff1673ffffffffffffffffffffffffffffffffffffffff16815260200190815260200160002060000160016101000a81548160ff0219169083151502179055505b60018114156110bf576001600560003373ffffffffffffffffffffffffffffffffffffffff1673ffffffffffffffffffffffffffffffffffffffff16815260200190815260200160002060000160006101000a81548160ff0219169083600281111561105e577f4e487b7100000000000000000000000000000000000000000000000000000000600052602160045260246000fd5b02179055506001600560003373ffffffffffffffffffffffffffffffffffffffff1673ffffffffffffffffffffffffffffffffffffffff16815260200190815260200160002060000160016101000a81548160ff0219169083151502179055505b50565b6000600160009054906101000a900460ff16905090565b6000600283836040516020016110f092919061162f565b60405160208183030381529060405260405161110c9190611618565b602060405180830381855afa158015611129573d6000803e3d6000fd5b5050506040513d601f19601f8201168201806040525081019061114c91906113d4565b905092915050565b60011515600560003373ffffffffffffffffffffffffffffffffffffffff1673ffffffffffffffffffffffffffffffffffffffff16815260200190815260200160002060000160019054906101000a900460ff161515146111ea576040517f08c379a00000000000000000000000000000000000000000000000000000000081526004016111e1906116ad565b60405180910390fd5b600560003373ffffffffffffffffffffffffffffffffffffffff1673ffffffffffffffffffffffffffffffffffffffff16815260200190815260200160002060010173__$c771099da9bd0a3ff17f09a7346d3727ae$__63603039a69091836040518363ffffffff1660e01b81526004016112669291906116e8565b60006040518083038186803b15801561127e57600080fd5b505af4158015611292573d6000803e3d6000fd5b50505050346000808282546112a791906117fe565b9250508190555050565b60006112c46112bf84611780565b61174f565b9050828152602081018484840111156112dc57600080fd5b6112e7848285611874565b509392505050565b6000815190506112fe8161198f565b92915050565b600081359050611313816119a6565b92915050565b600081519050611328816119a6565b92915050565b600082601f83011261133f57600080fd5b813561134f8482602086016112b1565b91505092915050565b600081359050611367816119bd565b92915050565b60008151905061137c816119bd565b92915050565b60006020828403121561139457600080fd5b60006113a2848285016112ef565b91505092915050565b6000602082840312156113bd57600080fd5b60006113cb84828501611304565b91505092915050565b6000602082840312156113e657600080fd5b60006113f484828501611319565b91505092915050565b6000806040838503121561141057600080fd5b600083013567ffffffffffffffff81111561142a57600080fd5b6114368582860161132e565b925050602061144785828601611358565b9150509250929050565b60006020828403121561146357600080fd5b600061147184828501611358565b91505092915050565b60006020828403121561148c57600080fd5b600061149a8482850161136d565b91505092915050565b6114ac81611854565b82525050565b6114bb81611860565b82525050565b6114ca81611860565b82525050565b60006114db826117b0565b6114e581856117c6565b93506114f5818560208601611883565b80840191505092915050565b600061150c826117bb565b61151681856117e2565b9350611526818560208601611883565b61152f8161197e565b840191505092915050565b6000611545826117bb565b61154f81856117f3565b935061155f818560208601611883565b80840191505092915050565b6000611578601c836117d1565b91507f796f752063616e2774206368616e676520796f75722063686f696365000000006000830152602082019050919050565b60006115b8601f836117d1565b91507f706c61796572206861766520746f207069636b204f6464206f72204576656e006000830152602082019050919050565b8082525050565b6115fb8161186a565b82525050565b61161261160d8261186a565b6118b6565b82525050565b600061162482846114d0565b915081905092915050565b600061163b828561153a565b91506116478284611601565b6020820191508190509392505050565b600060208201905061166c60008301846114a3565b92915050565b600060208201905061168760008301846114b2565b92915050565b600060208201905081810360008301526116a68161156b565b9050919050565b600060208201905081810360008301526116c6816115ab565b9050919050565b60006020820190506116e260008301846115eb565b92915050565b60006040820190506116fd60008301856115eb565b61170a60208301846114c1565b9392505050565b600060608201905061172660008301866115eb565b81810360208301526117388185611501565b905061174760408301846115f2565b949350505050565b6000604051905081810181811067ffffffffffffffff821117156117765761177561194f565b5b8060405250919050565b600067ffffffffffffffff82111561179b5761179a61194f565b5b601f19601f8301169050602081019050919050565b600081519050919050565b600081519050919050565b600081905092915050565b600082825260208201905092915050565b600082825260208201905092915050565b600081905092915050565b60006118098261186a565b91506118148361186a565b9250827fffffffffffffffffffffffffffffffffffffffffffffffffffffffffffffffff03821115611849576118486118f1565b5b828201905092915050565b60008115159050919050565b6000819050919050565b6000819050919050565b82818337600083830152505050565b60005b838110156118a1578082015181840152602081019050611886565b838111156118b0576000848401525b50505050565b6000819050919050565b60006118cb8261186a565b91506118d68361186a565b9250826118e6576118e5611920565b5b828206905092915050565b7f4e487b7100000000000000000000000000000000000000000000000000000000600052601160045260246000fd5b7f4e487b7100000000000000000000000000000000000000000000000000000000600052601260045260246000fd5b7f4e487b7100000000000000000000000000000000000000000000000000000000600052604160045260246000fd5b6000601f19601f8301169050919050565b61199881611854565b81146119a357600080fd5b50565b6119af81611860565b81146119ba57600080fd5b50565b6119c68161186a565b81146119d157600080fd5b5056fea2646970667358221220679e392621dcd6e972b1a7a573ff54b308a31d911cc15f473324123859eeaedc64736f6c63430008000033",
  "linkReferences": {
    "contracts/TwoPhaseCommit.sol": {
      "TwoPhaseCommit": [
        {
          "length": 20,
          "start": 1887
        },
        {
          "length": 20,
          "start": 2127
        },
        {
          "length": 20,
          "start": 2613
        },
        {
          "length": 20,
          "start": 2849
        },
        {
          "length": 20,
          "start": 4467
        },
        {
          "length": 20,
          "start": 4677
        },
        {
          "length": 20,
          "start": 4917
        },
        {
          "length": 20,
          "start": 6110
        }
      ]
    }
  },
  "deployedLinkReferences": {
    "contracts/TwoPhaseCommit.sol": {
      "TwoPhaseCommit": [
        {
          "length": 20,
          "start": 431
        },
        {
          "length": 20,
          "start": 671
        },
        {
          "length": 20,
          "start": 1157
        },
        {
          "length": 20,
          "start": 1393
        },
        {
          "length": 20,
          "start": 3011
        },
        {
          "length": 20,
          "start": 3221
        },
        {
          "length": 20,
          "start": 3461
        },
        {
          "length": 20,
          "start": 4654
        }
      ]
    }
  }
}